{
  "_format": "hh-sol-artifact-1",
  "contractName": "URL_Forum",
  "sourceName": "contracts/URL_Forum.sol",
  "abi": [
    {
      "inputs": [],
      "stateMutability": "payable",
      "type": "constructor"
    },
    {
      "anonymous": false,
      "inputs": [
        {
          "indexed": true,
          "internalType": "address",
          "name": "from",
          "type": "address"
        },
        {
          "indexed": false,
          "internalType": "uint256",
          "name": "timestamp",
          "type": "uint256"
        },
        {
          "indexed": false,
          "internalType": "string",
          "name": "message",
          "type": "string"
        },
        {
          "indexed": false,
          "internalType": "uint256",
          "name": "reward",
          "type": "uint256"
        }
      ],
      "name": "NewPost",
      "type": "event"
    },
    {
      "inputs": [],
      "name": "getAllPosts",
      "outputs": [
        {
          "components": [
            {
              "internalType": "address",
              "name": "poster",
              "type": "address"
            },
            {
              "internalType": "string",
              "name": "message",
              "type": "string"
            },
            {
              "internalType": "uint256",
              "name": "timestamp",
              "type": "uint256"
            },
            {
              "internalType": "uint256",
              "name": "reward",
              "type": "uint256"
            }
          ],
          "internalType": "struct URL_Forum.Post[]",
          "name": "",
          "type": "tuple[]"
        }
      ],
      "stateMutability": "view",
      "type": "function"
    },
    {
      "inputs": [
        {
          "internalType": "address",
          "name": "",
          "type": "address"
        }
      ],
      "name": "lastPosted",
      "outputs": [
        {
          "internalType": "uint256",
          "name": "",
          "type": "uint256"
        }
      ],
      "stateMutability": "view",
      "type": "function"
    },
    {
      "inputs": [
        {
          "internalType": "string",
          "name": "_message",
          "type": "string"
        }
      ],
      "name": "post",
      "outputs": [],
      "stateMutability": "nonpayable",
      "type": "function"
    }
  ],
  "bytecode": "0x60806040526200004f6040518060400160405280601981526020017f57652068617665206265656e20636f6e737472756374656421000000000000008152506200007760201b620006581760201c565b606444426200005f91906200017c565b6200006b9190620001e6565b600081905550620002dc565b62000117816040516024016200008e9190620002b8565b6040516020818303038152906040527f41304fac000000000000000000000000000000000000000000000000000000007bffffffffffffffffffffffffffffffffffffffffffffffffffffffff19166020820180517bffffffffffffffffffffffffffffffffffffffffffffffffffffffff83818316178352505050506200011a60201b60201c565b50565b60008151905060006a636f6e736f6c652e6c6f679050602083016000808483855afa5050505050565b6000819050919050565b7f4e487b7100000000000000000000000000000000000000000000000000000000600052601160045260246000fd5b6000620001898262000143565b9150620001968362000143565b9250828201905080821115620001b157620001b06200014d565b5b92915050565b7f4e487b7100000000000000000000000000000000000000000000000000000000600052601260045260246000fd5b6000620001f38262000143565b9150620002008362000143565b925082620002135762000212620001b7565b5b828206905092915050565b600081519050919050565b600082825260208201905092915050565b60005b838110156200025a5780820151818401526020810190506200023d565b60008484015250505050565b6000601f19601f8301169050919050565b600062000284826200021e565b62000290818562000229565b9350620002a28185602086016200023a565b620002ad8162000266565b840191505092915050565b60006020820190508181036000830152620002d4818462000277565b905092915050565b61144280620002ec6000396000f3fe608060405234801561001057600080fd5b50600436106100415760003560e01c806327537ca51461004657806330561100146100765780638ee93cf314610094575b600080fd5b610060600480360381019061005b9190610963565b6100b0565b60405161006d91906109a9565b60405180910390f35b61007e6100c8565b60405161008b9190610b97565b60405180910390f35b6100ae60048036038101906100a99190610cee565b610223565b005b60026020528060005260406000206000915090505481565b60606001805480602002602001604051908101604052809291908181526020016000905b8282101561021a57838290600052602060002090600402016040518060800160405290816000820160009054906101000a900473ffffffffffffffffffffffffffffffffffffffff1673ffffffffffffffffffffffffffffffffffffffff1673ffffffffffffffffffffffffffffffffffffffff16815260200160018201805461017590610d66565b80601f01602080910402602001604051908101604052809291908181526020018280546101a190610d66565b80156101ee5780601f106101c3576101008083540402835291602001916101ee565b820191906000526020600020905b8154815290600101906020018083116101d157829003601f168201915b5050505050815260200160028201548152602001600382015481525050815260200190600101906100ec565b50505050905090565b42601e600260003373ffffffffffffffffffffffffffffffffffffffff1673ffffffffffffffffffffffffffffffffffffffff168152602001908152602001600020546102709190610dc6565b106102b0576040517f08c379a00000000000000000000000000000000000000000000000000000000081526004016102a790610e57565b60405180910390fd5b42600260003373ffffffffffffffffffffffffffffffffffffffff1673ffffffffffffffffffffffffffffffffffffffff168152602001908152602001600020819055506103346040518060400160405280601681526020017f257320776176656420772f206d6573736167652025730000000000000000000081525033836106f1565b600060326000541161047d5761037f6040518060400160405280600781526020017f257320776f6e210000000000000000000000000000000000000000000000000081525033610790565b6512309ce540009050478111156103cb576040517f08c379a00000000000000000000000000000000000000000000000000000000081526004016103c290610ee9565b60405180910390fd5b60003373ffffffffffffffffffffffffffffffffffffffff16826040516103f190610f3a565b60006040518083038185875af1925050503d806000811461042e576040519150601f19603f3d011682016040523d82523d6000602084013e610433565b606091505b5050905080610477576040517f08c379a000000000000000000000000000000000000000000000000000000000815260040161046e90610fc1565b60405180910390fd5b506104c1565b600090506104c06040518060400160405280600f81526020017f257320646964206e6f742077696e2e000000000000000000000000000000000081525033610790565b5b600160405180608001604052803373ffffffffffffffffffffffffffffffffffffffff16815260200184815260200142815260200183815250908060018154018082558091505060019003906000526020600020906004020160009091909190915060008201518160000160006101000a81548173ffffffffffffffffffffffffffffffffffffffff021916908373ffffffffffffffffffffffffffffffffffffffff160217905550602082015181600101908161057f919061118d565b5060408201518160020155606082015181600301555050606460005442446105a79190610dc6565b6105b19190610dc6565b6105bb919061128e565b6000819055506106026040518060400160405280600f81526020017f52616e646f6d20736565643a202573000000000000000000000000000000000081525060005461082c565b3373ffffffffffffffffffffffffffffffffffffffff167fac9690ce35fd5cfe026f31377d6ea6017f3c2787a61897368386d6f1f5f4c9bb42848460405161064c939291906112f8565b60405180910390a25050565b6106ee8160405160240161066c9190611336565b6040516020818303038152906040527f41304fac000000000000000000000000000000000000000000000000000000007bffffffffffffffffffffffffffffffffffffffffffffffffffffffff19166020820180517bffffffffffffffffffffffffffffffffffffffffffffffffffffffff83818316178352505050506108c8565b50565b61078b83838360405160240161070993929190611367565b6040516020818303038152906040527fe0e9ad4f000000000000000000000000000000000000000000000000000000007bffffffffffffffffffffffffffffffffffffffffffffffffffffffff19166020820180517bffffffffffffffffffffffffffffffffffffffffffffffffffffffff83818316178352505050506108c8565b505050565b61082882826040516024016107a69291906113ac565b6040516020818303038152906040527f319af333000000000000000000000000000000000000000000000000000000007bffffffffffffffffffffffffffffffffffffffffffffffffffffffff19166020820180517bffffffffffffffffffffffffffffffffffffffffffffffffffffffff83818316178352505050506108c8565b5050565b6108c482826040516024016108429291906113dc565b6040516020818303038152906040527fb60e72cc000000000000000000000000000000000000000000000000000000007bffffffffffffffffffffffffffffffffffffffffffffffffffffffff19166020820180517bffffffffffffffffffffffffffffffffffffffffffffffffffffffff83818316178352505050506108c8565b5050565b60008151905060006a636f6e736f6c652e6c6f679050602083016000808483855afa5050505050565b6000604051905090565b600080fd5b600080fd5b600073ffffffffffffffffffffffffffffffffffffffff82169050919050565b600061093082610905565b9050919050565b61094081610925565b811461094b57600080fd5b50565b60008135905061095d81610937565b92915050565b600060208284031215610979576109786108fb565b5b60006109878482850161094e565b91505092915050565b6000819050919050565b6109a381610990565b82525050565b60006020820190506109be600083018461099a565b92915050565b600081519050919050565b600082825260208201905092915050565b6000819050602082019050919050565b6109f981610925565b82525050565b600081519050919050565b600082825260208201905092915050565b60005b83811015610a39578082015181840152602081019050610a1e565b60008484015250505050565b6000601f19601f8301169050919050565b6000610a61826109ff565b610a6b8185610a0a565b9350610a7b818560208601610a1b565b610a8481610a45565b840191505092915050565b610a9881610990565b82525050565b6000608083016000830151610ab660008601826109f0565b5060208301518482036020860152610ace8282610a56565b9150506040830151610ae36040860182610a8f565b506060830151610af66060860182610a8f565b508091505092915050565b6000610b0d8383610a9e565b905092915050565b6000602082019050919050565b6000610b2d826109c4565b610b3781856109cf565b935083602082028501610b49856109e0565b8060005b85811015610b855784840389528151610b668582610b01565b9450610b7183610b15565b925060208a01995050600181019050610b4d565b50829750879550505050505092915050565b60006020820190508181036000830152610bb18184610b22565b905092915050565b600080fd5b600080fd5b7f4e487b7100000000000000000000000000000000000000000000000000000000600052604160045260246000fd5b610bfb82610a45565b810181811067ffffffffffffffff82111715610c1a57610c19610bc3565b5b80604052505050565b6000610c2d6108f1565b9050610c398282610bf2565b919050565b600067ffffffffffffffff821115610c5957610c58610bc3565b5b610c6282610a45565b9050602081019050919050565b82818337600083830152505050565b6000610c91610c8c84610c3e565b610c23565b905082815260208101848484011115610cad57610cac610bbe565b5b610cb8848285610c6f565b509392505050565b600082601f830112610cd557610cd4610bb9565b5b8135610ce5848260208601610c7e565b91505092915050565b600060208284031215610d0457610d036108fb565b5b600082013567ffffffffffffffff811115610d2257610d21610900565b5b610d2e84828501610cc0565b91505092915050565b7f4e487b7100000000000000000000000000000000000000000000000000000000600052602260045260246000fd5b60006002820490506001821680610d7e57607f821691505b602082108103610d9157610d90610d37565b5b50919050565b7f4e487b7100000000000000000000000000000000000000000000000000000000600052601160045260246000fd5b6000610dd182610990565b9150610ddc83610990565b9250828201905080821115610df457610df3610d97565b5b92915050565b600082825260208201905092915050565b7f5761697420333073656300000000000000000000000000000000000000000000600082015250565b6000610e41600a83610dfa565b9150610e4c82610e0b565b602082019050919050565b60006020820190508181036000830152610e7081610e34565b9050919050565b7f547279696e6720746f207769746864726177206d6f7265206d6f6e657920746860008201527f616e2074686520636f6e7472616374206861732e000000000000000000000000602082015250565b6000610ed3603483610dfa565b9150610ede82610e77565b604082019050919050565b60006020820190508181036000830152610f0281610ec6565b9050919050565b600081905092915050565b50565b6000610f24600083610f09565b9150610f2f82610f14565b600082019050919050565b6000610f4582610f17565b9150819050919050565b7f4661696c656420746f207769746864726177206d6f6e65792066726f6d20636f60008201527f6e74726163742e00000000000000000000000000000000000000000000000000602082015250565b6000610fab602783610dfa565b9150610fb682610f4f565b604082019050919050565b60006020820190508181036000830152610fda81610f9e565b9050919050565b60008190508160005260206000209050919050565b60006020601f8301049050919050565b600082821b905092915050565b6000600883026110437fffffffffffffffffffffffffffffffffffffffffffffffffffffffffffffffff82611006565b61104d8683611006565b95508019841693508086168417925050509392505050565b6000819050919050565b600061108a61108561108084610990565b611065565b610990565b9050919050565b6000819050919050565b6110a48361106f565b6110b86110b082611091565b848454611013565b825550505050565b600090565b6110cd6110c0565b6110d881848461109b565b505050565b5b818110156110fc576110f16000826110c5565b6001810190506110de565b5050565b601f8211156111415761111281610fe1565b61111b84610ff6565b8101602085101561112a578190505b61113e61113685610ff6565b8301826110dd565b50505b505050565b600082821c905092915050565b600061116460001984600802611146565b1980831691505092915050565b600061117d8383611153565b9150826002028217905092915050565b611196826109ff565b67ffffffffffffffff8111156111af576111ae610bc3565b5b6111b98254610d66565b6111c4828285611100565b600060209050601f8311600181146111f757600084156111e5578287015190505b6111ef8582611171565b865550611257565b601f19841661120586610fe1565b60005b8281101561122d57848901518255600182019150602085019450602081019050611208565b8683101561124a5784890151611246601f891682611153565b8355505b6001600288020188555050505b505050505050565b7f4e487b7100000000000000000000000000000000000000000000000000000000600052601260045260246000fd5b600061129982610990565b91506112a483610990565b9250826112b4576112b361125f565b5b828206905092915050565b60006112ca826109ff565b6112d48185610dfa565b93506112e4818560208601610a1b565b6112ed81610a45565b840191505092915050565b600060608201905061130d600083018661099a565b818103602083015261131f81856112bf565b905061132e604083018461099a565b949350505050565b6000602082019050818103600083015261135081846112bf565b905092915050565b61136181610925565b82525050565b6000606082019050818103600083015261138181866112bf565b90506113906020830185611358565b81810360408301526113a281846112bf565b9050949350505050565b600060408201905081810360008301526113c681856112bf565b90506113d56020830184611358565b9392505050565b600060408201905081810360008301526113f681856112bf565b9050611405602083018461099a565b939250505056fea2646970667358221220d8ac639478fb5a6837cac1ea89819d13c18d9039409be22f68c87977090f470264736f6c63430008110033",
  "linkReferences": {},
  "deployedLinkReferences": {}
}